:1000000081C000009EC000009CC000009AC000009B
:1000100098C0000096C0000094C0000092C000008C
:1000200090C000008EC000008CC000008AC000009C
:1000300088C0000086C0000084C0000082C00000AC
:1000400080C000007EC000007CC000007AC00000BC
:1000500078C0000076C0000074C0000072C00000CC
:1000600070C00000E2C400006CC0000009C50000C0
:1000700068C0000067C0000064C0000062C00000EB
:1000800060C000005EC000005CC000005AC00000FC
:1000900058C0000056C0000054C0000052C000000C
:1000A00050C000004EC000004CC000004AC000001C
:1000B00048C0000046C0000044C0000042C000002C
:1000C00040C000003EC000003CC000003AC000003C
:1000D00038C0000036C0000034C0000032C000004C
:1000E00030C0000067016D01760182018B0197012C
:1000F000A601B201BB011E0432043F044C045904A2
:100100006A047A0411241FBECFEFD1E2DEBFCDBF57
:1001100000E00CBF12E0A0E0B2E0EEE8FBE000E09F
:100120000BBF02C007900D92AA30B107D9F723E0A8
:10013000AAE0B2E001C01D92A934B207E1F7C8D22B
:1001400024C55ECF1F920F920FB60F9211240BB6EB
:100150000F922F933F934F935F936F937F938F9360
:100160009F93AF93BF93EF93FF938091780090E0BC
:1001700090931202809311022091790080911102D4
:1001800090911202922B909312028093110220916F
:100190001102309112028091130290911402A091E9
:1001A0001502B0911602820F931FA11DB11D8093FD
:1001B000130290931402A0931502B093160280913B
:1001C0000D0290910E02019690930E0280930D0203
:1001D0008115944079F58091130290911402A091B9
:1001E0001502B0911602072E7CE0B695A79597955B
:1001F00087957A95D1F7702D9093100280930F0216
:10020000109213021092140210921502109216020C
:1002100010920E0210920D0281E080930C02E09188
:100220000A02F0910B02309729F080910F02909111
:1002300010021995FF91EF91BF91AF919F918F910E
:100240007F916F915F914F913F912F910F900BBED6
:100250000F900FBE0F901F90189590930B028093F4
:100260000A02089510927B00EAE7F0E0908197601F
:100270009083ECE7F0E0908190649083882319F0FC
:10028000808180628083EAE7F0E080818062808301
:10029000808180688083808188608083ACE7B0E063
:1002A0008C91807F8C938081806480830895EAE7BD
:1002B000F0E090819F7B908390E08930910508F079
:1002C00062C0FC018827EE58FF4F8F4F26C4ECE731
:1002D000F0E08081807F808356C0ECE7F0E0808191
:1002E000816080838081817F80834DC0ECE7F0E076
:1002F00080818E7F80838081826080838081837F04
:10030000808341C0ECE7F0E080818360808380815E
:10031000837F808338C0ECE7F0E080818C7F80832E
:100320008081846080838081877F80832CC0ECE71C
:10033000F0E080818160808380818D7F80838081F7
:10034000846080838081877F80831DC0ECE7F0E03C
:1003500080818E7F80838081866080838081877F9B
:10036000808311C0ECE7F0E080818760808380812A
:10037000877F808308C0ECE7F0E08081887F8083FE
:10038000808188608083EAE7F0E0808180648083F8
:1003900008953AD345C20895CF92DF92EF92FF922B
:1003A0006B017C0189EC91E032D38EE092E036D390
:1003B000E5D2C701B601ECD2FF90EF90DF90CF906D
:1003C000089581E090911702911180E0089588E1ED
:1003D00092E0A5D180931702809118020DC3089571
:1003E0000F931F9390911702911114C0EEE2F2E067
:1003F0004383818362832483222331F0422F50E0A0
:10040000B80184E392E091D38EE292E097D2DFDFED
:100410008FEF01C080E01F910F9108958091170226
:100420008111D5CF0895F894E091240291E09E0FB8
:1004300090932402F0E0EB5DFD4F8083923011F445
:10044000109224028091240232DF78940895CF9292
:10045000DF92EF92FF920F931F93CF93DF93EC0104
:10046000209125028091190290911A02A0911B02FD
:10047000B0911C02BC01CD01620F711D811D911D47
:100480006093190270931A0280931B0290931C02CE
:1004900000911D0210911E0220911F023091200236
:1004A000A90198012F5F3F4F4F4F5F4F20931D02CF
:1004B00030931E0240931F0250932002C09002020C
:1004C000D0900302E0900402F09005022C153D0547
:1004D0004E055F0531F5FFD2288310921902109264
:1004E0001A0210921B0210921C0210921D0210920E
:1004F0001E0210921F021092200280910102882396
:1005000091F01092010280E095E3ACE0B0E08093BE
:10051000020290930302A0930402B09305028FEFAE
:1005200003C080E001C08FEFDF91CF911F910F9149
:10053000FF90EF90DF90CF900895CF93DF931F92BD
:10054000CDB7DEB7CE01019682DF882359F09091B6
:1005500076028981891730F01092230210920002EE
:10056000419A43980F90DF91CF910895CF93DF93F5
:100570001F92CDB7DEB7CE01019669DF8823D9F08F
:10058000909175028981981758F081E08093230239
:100590001092000280912102811101C04198439A7A
:1005A00080910002882339F080912302811103C0D9
:1005B000419A109200020F90DF91CF91089590918F
:1005C000260280917402981748F0809123028823B4
:1005D00021F0813019F4B1CF0895C8CF089543E0D8
:1005E00050E061E070E084E792E0A8C20895F7DF90
:1005F00083E192E032DE80E035DE60E07BE480E0A3
:1006000090E0CADE8FEF81B987B98AB941984398E3
:100610007894089543E050E061E070E084E792E070
:100620009DC208950F931F9380917A028D30A1F09F
:1006300018F48B3031F042C08F30C9F0833149F16A
:100640003DC0BFDE8823D1F105E212E022E04CE09C
:1006500061E082E0C5DE32C0B4DE882379F104E7D0
:1006600012E023E04EE061E082E0BADE27C0809134
:100670007B02833019F580917D0290917E02A091DA
:100680007F028093740290937502A0937602C2DF7A
:1006900015C080917D0280932102882331F0419A18
:1006A000809123028093220209C08091220281302E
:1006B00009F4419880912202809323021F910F91A7
:1006C000089587E792E040D08111ACDF78DFF9CF61
:1006D0008EDFF7DF80912B02811104C081E08093CF
:1006E0002B02089510922B020895F4DF1092290234
:1006F000E0912B0286E48E9FF0011124E958FD4F12
:10070000DF011D928A95E9F7089510922A0210924E
:10071000290210922D0210922C02DCCF0895E09154
:10072000280221E02E0F20932802F0E0ED5FFC4F1D
:100730002081FC01208381E02091280290912702F2
:10074000291708F080E00895DC0120912C023091F7
:100750002D02232B89F0F894E0912C02F0912D02C8
:1007600096E401900D929A95E1F710922D02109265
:100770002C0278948FEF089580E008950F936134F0
:10078000D0F450E0460F511DFA01E20FF11D9F0118
:10079000200F311D662369F0FC01615070E06F5F2E
:1007A0007F4F860F971F4191240F311DE817F907DE
:1007B000D1F7822F01C080E00F910895EF92FF9250
:1007C0000F93CF93DF9380912B02E82EF12C26E438
:1007D000829FC0011124EC01C958DD4F0A81298193
:1007E0004B816C8183589D4FC9DF10922A02109271
:1007F00029029D8189130DC026E42E9DC0012F9DE5
:10080000900D112489589D4F90932D0280932C02B6
:1008100001C07BDFDF91CF910F91FF90EF900895A2
:1008200040912A0250E04730510508F086C0982FC9
:10083000FA018827E558FF4F8F4F6FC19A3A09F0A8
:100840007CC053DFE0912B0236E4E39FF0011124DA
:10085000E958FD4F8AEA808380912A028F5F809356
:100860002A020895E0912B0286E4E89FF00111240A
:10087000E958FD4F918382E080932A020895E09128
:100880002B0236E4E39FF0011124E958FD4F9283D7
:1008900083E080932A020895E0912B0286E4E89F8A
:1008A000F0011124E958FD4F938384E080932A02DC
:1008B0000895913410F029CF0895E0912B0236E489
:1008C000E39FF0011124E958FD4F948385E0809364
:1008D0002A020895E0912B0286E4E89FF00111249A
:1008E000E958FD4F95838481882331F186E0809318
:1008F0002A020895E0912B022091290281E0820FC3
:10090000809329024E2F50E036E4E39FF00111243A
:10091000E958FD4FE20FF11D9683813410F0F5CEBA
:10092000089596E4949FF001959FF00D1124E958E5
:10093000FD4F9481891301C041CF08950F93CF9348
:10094000DF93EC01109228026C8186E0860F809381
:1009500027028AEA88830A8129814B81CE01069683
:100960000DDF8D834091270250E0BE0183E093E0CC
:10097000DCD0DF91CF910F910895089588ED809399
:10098000C10087E68093C4001092C5007894089552
:100990000F931F938B019C01DC01CB0180589B4777
:1009A000A14EBF4F880F991FAA1FBB1F880F991F09
:1009B000AA1FBB1FBC01CD01660F771F881F991F9F
:1009C000000F111F221F331F000F111F221F331F83
:1009D000A9019801220F331F441F551F220F331FF7
:1009E000441F551F78D0215031092093C400309303
:1009F000C5001F910F910895E0ECF0E0908195FF04
:100A0000FDCF8093C60008958091C6000895009799
:100A100021F090930902809308020895009721F035
:100A2000909307028093060208951F920F920FB6CB
:100A30000F9211240BB60F922F933F934F935F9316
:100A40006F937F938F939F93AF93BF93EF93FF9396
:100A5000E0910802F09109021995FF91EF91BF9181
:100A6000AF919F918F917F916F915F914F913F9146
:100A70002F910F900BBE0F900FBE0F901F901895E7
:100A80001F920F920FB60F9211240BB60F922F9355
:100A90003F934F935F936F937F938F939F93AF9306
:100AA000BF93EF93FF93E0910602F091070219952F
:100AB000FF91EF91BF91AF919F918F917F916F9136
:100AC0005F914F913F912F910F900BBE0F900FBEF2
:100AD0000F901F901895A1E21A2EAA1BBB1BFD01B7
:100AE0000DC0AA1FBB1FEE1FFF1FA217B307E4070D
:100AF000F50720F0A21BB30BE40BF50B661F771F65
:100B0000881F991F1A9469F7609570958095909544
:100B10009B01AC01BD01CF010895EE0FFF1F881F9F
:100B20008BBF0790F691E02D1994FB01DC0102C008
:100B300001900D9241505040D8F70895DC01CB014F
:100B4000FC01F999FECF06C0F2BDE1BDF89A3196DD
:100B500000B40D9241505040B8F70895DC01CB012C
:100B600002C02D9105D041505040D8F70895262F4E
:100B7000F999FECF1FBA92BD81BD20BD0FB6F89482
:0E0B8000FA9AF99A0FBE01960895F894FFCFE5
:0A0B8E00FFFF400D0300BD04BD048D
:00000001FF
